{
  "contractName": "UserRegistry",
  "abi": [
    {
      "anonymous": false,
      "inputs": [
        {
          "indexed": false,
          "internalType": "string",
          "name": "email",
          "type": "string"
        }
      ],
      "name": "UserLoggedIn",
      "type": "event"
    },
    {
      "anonymous": false,
      "inputs": [
        {
          "indexed": false,
          "internalType": "string",
          "name": "email",
          "type": "string"
        }
      ],
      "name": "UserRegistered",
      "type": "event"
    },
    {
      "inputs": [
        {
          "internalType": "string",
          "name": "_firstName",
          "type": "string"
        },
        {
          "internalType": "string",
          "name": "_surname",
          "type": "string"
        },
        {
          "internalType": "string",
          "name": "_email",
          "type": "string"
        },
        {
          "internalType": "bytes32",
          "name": "_passwordHash",
          "type": "bytes32"
        }
      ],
      "name": "registerUser",
      "outputs": [],
      "stateMutability": "nonpayable",
      "type": "function"
    },
    {
      "inputs": [
        {
          "internalType": "string",
          "name": "_email",
          "type": "string"
        },
        {
          "internalType": "bytes32",
          "name": "_passwordHash",
          "type": "bytes32"
        }
      ],
      "name": "loginUser",
      "outputs": [
        {
          "internalType": "bool",
          "name": "",
          "type": "bool"
        }
      ],
      "stateMutability": "view",
      "type": "function"
    },
    {
      "inputs": [
        {
          "internalType": "string",
          "name": "_email",
          "type": "string"
        }
      ],
      "name": "userExists",
      "outputs": [
        {
          "internalType": "bool",
          "name": "",
          "type": "bool"
        }
      ],
      "stateMutability": "view",
      "type": "function"
    },
    {
      "inputs": [
        {
          "internalType": "string",
          "name": "_email",
          "type": "string"
        }
      ],
      "name": "getUserInfo",
      "outputs": [
        {
          "internalType": "string",
          "name": "",
          "type": "string"
        },
        {
          "internalType": "string",
          "name": "",
          "type": "string"
        }
      ],
      "stateMutability": "view",
      "type": "function"
    }
  ],
  "bytecode": "0x608060405234801561001057600080fd5b50610b0e806100206000396000f3fe608060405234801561001057600080fd5b506004361061004c5760003560e01c8063380eeece146100515780637c9b7fdd146100815780637ee9a818146100b2578063fddc968e146100ce575b600080fd5b61006b6004803603810190610066919061067d565b6100fe565b604051610078919061088c565b60405180910390f35b61009b6004803603810190610096919061063c565b610199565b6040516100a99291906108c9565b60405180910390f35b6100cc60048036038101906100c791906106d1565b61036d565b005b6100e860048036038101906100e3919061063c565b6104e5565b6040516100f5919061088c565b60405180910390f35b6000808360405161010f9190610875565b908152602001604051809103902060040160009054906101000a900460ff1661016d576040517f08c379a000000000000000000000000000000000000000000000000000000000815260040161016490610920565b60405180910390fd5b8160008460405161017e9190610875565b90815260200160405180910390206003015414905092915050565b6060806000836040516101ac9190610875565b908152602001604051809103902060040160009054906101000a900460ff1661020a576040517f08c379a000000000000000000000000000000000000000000000000000000000815260040161020190610920565b60405180910390fd5b60008360405161021a9190610875565b908152602001604051809103902060000160008460405161023b9190610875565b908152602001604051809103902060010181805461025890610a20565b80601f016020809104026020016040519081016040528092919081815260200182805461028490610a20565b80156102d15780601f106102a6576101008083540402835291602001916102d1565b820191906000526020600020905b8154815290600101906020018083116102b457829003601f168201915b505050505091508080546102e490610a20565b80601f016020809104026020016040519081016040528092919081815260200182805461031090610a20565b801561035d5780601f106103325761010080835404028352916020019161035d565b820191906000526020600020905b81548152906001019060200180831161034057829003601f168201915b5050505050905091509150915091565b60008260405161037d9190610875565b908152602001604051809103902060040160009054906101000a900460ff16156103dc576040517f08c379a00000000000000000000000000000000000000000000000000000000081526004016103d390610900565b60405180910390fd5b6040518060a00160405280858152602001848152602001838152602001828152602001600115158152506000836040516104169190610875565b9081526020016040518091039020600082015181600001908051906020019061044092919061051c565b50602082015181600101908051906020019061045d92919061051c565b50604082015181600201908051906020019061047a92919061051c565b506060820151816003015560808201518160040160006101000a81548160ff0219169083151502179055509050507f270ff4b111e5baa49283562af127cc5ea74e9d6c9efd5465578bd9223d5843f0826040516104d791906108a7565b60405180910390a150505050565b600080826040516104f69190610875565b908152602001604051809103902060040160009054906101000a900460ff169050919050565b82805461052890610a20565b90600052602060002090601f01602090048101928261054a5760008555610591565b82601f1061056357805160ff1916838001178555610591565b82800160010185558215610591579182015b82811115610590578251825591602001919060010190610575565b5b50905061059e91906105a2565b5090565b5b808211156105bb5760008160009055506001016105a3565b5090565b60006105d26105cd84610971565b610940565b9050828152602081018484840111156105ea57600080fd5b6105f58482856109de565b509392505050565b60008135905061060c81610ac1565b92915050565b600082601f83011261062357600080fd5b81356106338482602086016105bf565b91505092915050565b60006020828403121561064e57600080fd5b600082013567ffffffffffffffff81111561066857600080fd5b61067484828501610612565b91505092915050565b6000806040838503121561069057600080fd5b600083013567ffffffffffffffff8111156106aa57600080fd5b6106b685828601610612565b92505060206106c7858286016105fd565b9150509250929050565b600080600080608085870312156106e757600080fd5b600085013567ffffffffffffffff81111561070157600080fd5b61070d87828801610612565b945050602085013567ffffffffffffffff81111561072a57600080fd5b61073687828801610612565b935050604085013567ffffffffffffffff81111561075357600080fd5b61075f87828801610612565b9250506060610770878288016105fd565b91505092959194509250565b610785816109c8565b82525050565b6000610796826109a1565b6107a081856109ac565b93506107b08185602086016109ed565b6107b981610ab0565b840191505092915050565b60006107cf826109a1565b6107d981856109bd565b93506107e98185602086016109ed565b80840191505092915050565b60006108026013836109ac565b91507f5573657220616c726561647920657869737473000000000000000000000000006000830152602082019050919050565b60006108426013836109ac565b91507f5573657220646f6573206e6f74206578697374000000000000000000000000006000830152602082019050919050565b600061088182846107c4565b915081905092915050565b60006020820190506108a1600083018461077c565b92915050565b600060208201905081810360008301526108c1818461078b565b905092915050565b600060408201905081810360008301526108e3818561078b565b905081810360208301526108f7818461078b565b90509392505050565b60006020820190508181036000830152610919816107f5565b9050919050565b6000602082019050818103600083015261093981610835565b9050919050565b6000604051905081810181811067ffffffffffffffff8211171561096757610966610a81565b5b8060405250919050565b600067ffffffffffffffff82111561098c5761098b610a81565b5b601f19601f8301169050602081019050919050565b600081519050919050565b600082825260208201905092915050565b600081905092915050565b60008115159050919050565b6000819050919050565b82818337600083830152505050565b60005b83811015610a0b5780820151818401526020810190506109f0565b83811115610a1a576000848401525b50505050565b60006002820490506001821680610a3857607f821691505b60208210811415610a4c57610a4b610a52565b5b50919050565b7f4e487b7100000000000000000000000000000000000000000000000000000000600052602260045260246000fd5b7f4e487b7100000000000000000000000000000000000000000000000000000000600052604160045260246000fd5b6000601f19601f8301169050919050565b610aca816109d4565b8114610ad557600080fd5b5056fea26469706673582212200e42e3db82366568b5b29ede9b7e46bfc2f6292794645ed3a51e618e6753d54e64736f6c63430008000033",
  "immutableReferences": {},
  "source": "// SPDX-License-Identifier: MIT\r\npragma solidity ^0.8.0;\r\n\r\ncontract UserRegistry {\r\n    struct User {\r\n        string firstName;\r\n        string surname;\r\n        string email;\r\n        bytes32 passwordHash;\r\n        bool exists;\r\n    }\r\n\r\n    mapping(string => User) private users;\r\n\r\n    event UserRegistered(string email);\r\n    event UserLoggedIn(string email);\r\n\r\n    function registerUser(string memory _firstName, string memory _surname, string memory _email, bytes32 _passwordHash) public {\r\n        require(!users[_email].exists, \"User already exists\");\r\n        \r\n        users[_email] = User({\r\n            firstName: _firstName,\r\n            surname: _surname,\r\n            email: _email,\r\n            passwordHash: _passwordHash,\r\n            exists: true\r\n        });\r\n\r\n        emit UserRegistered(_email);\r\n    }\r\n\r\n    function loginUser(string memory _email, bytes32 _passwordHash) public view returns (bool) {\r\n        require(users[_email].exists, \"User does not exist\");\r\n        return users[_email].passwordHash == _passwordHash;\r\n    }\r\n\r\n    function userExists(string memory _email) public view returns (bool) {\r\n        return users[_email].exists;\r\n    }\r\n\r\n    function getUserInfo(string memory _email) public view returns (string memory, string memory) {\r\n        require(users[_email].exists, \"User does not exist\");\r\n        return (users[_email].firstName, users[_email].surname);\r\n    }\r\n}",
  "sourcePath": "C:\\Xampp\\htdocs\\gov-identity-Dweb\\admin\\blockchain\\contracts\\UserRegistry.sol",
  "compiler": {
    "name": "solc",
    "version": "0.8.0+commit.c7dfd78e.Emscripten.clang"
  },
  "schemaVersion": "3.4.16",
  "updatedAt": "2024-09-25T21:10:12.686Z",
  "devdoc": {
    "kind": "dev",
    "methods": {},
    "version": 1
  },
  "userdoc": {
    "kind": "user",
    "methods": {},
    "version": 1
  }
}