{
  "contractName": "UserRegistry",
  "abi": [
    {
      "anonymous": false,
      "inputs": [
        {
          "indexed": false,
          "internalType": "string",
          "name": "email",
          "type": "string"
        }
      ],
      "name": "UserLoggedIn",
      "type": "event"
    },
    {
      "anonymous": false,
      "inputs": [
        {
          "indexed": false,
          "internalType": "string",
          "name": "email",
          "type": "string"
        }
      ],
      "name": "UserRegistered",
      "type": "event"
    },
    {
      "inputs": [
        {
          "internalType": "string",
          "name": "_firstName",
          "type": "string"
        },
        {
          "internalType": "string",
          "name": "_surname",
          "type": "string"
        },
        {
          "internalType": "string",
          "name": "_email",
          "type": "string"
        },
        {
          "internalType": "bytes32",
          "name": "_passwordHash",
          "type": "bytes32"
        }
      ],
      "name": "registerUser",
      "outputs": [],
      "stateMutability": "nonpayable",
      "type": "function"
    },
    {
      "inputs": [
        {
          "internalType": "string",
          "name": "_email",
          "type": "string"
        },
        {
          "internalType": "bytes32",
          "name": "_passwordHash",
          "type": "bytes32"
        }
      ],
      "name": "loginUser",
      "outputs": [
        {
          "internalType": "bool",
          "name": "",
          "type": "bool"
        }
      ],
      "stateMutability": "view",
      "type": "function"
    },
    {
      "inputs": [
        {
          "internalType": "string",
          "name": "_email",
          "type": "string"
        }
      ],
      "name": "userExists",
      "outputs": [
        {
          "internalType": "bool",
          "name": "",
          "type": "bool"
        }
      ],
      "stateMutability": "view",
      "type": "function"
    },
    {
      "inputs": [
        {
          "internalType": "string",
          "name": "_email",
          "type": "string"
        }
      ],
      "name": "getUserInfo",
      "outputs": [
        {
          "internalType": "string",
          "name": "",
          "type": "string"
        },
        {
          "internalType": "string",
          "name": "",
          "type": "string"
        }
      ],
      "stateMutability": "view",
      "type": "function"
    },
    {
      "inputs": [],
      "name": "getBlockNumber",
      "outputs": [
        {
          "internalType": "uint256",
          "name": "",
          "type": "uint256"
        }
      ],
      "stateMutability": "view",
      "type": "function"
    }
  ],
  "bytecode": "0x608060405234801561001057600080fd5b50610b73806100206000396000f3fe608060405234801561001057600080fd5b50600436106100575760003560e01c8063380eeece1461005c57806342cbb15c1461008c5780637c9b7fdd146100aa5780637ee9a818146100db578063fddc968e146100f7575b600080fd5b610076600480360381019061007191906106ae565b610127565b60405161008391906108cc565b60405180910390f35b6100946101c2565b6040516100a19190610980565b60405180910390f35b6100c460048036038101906100bf919061066d565b6101ca565b6040516100d2929190610909565b60405180910390f35b6100f560048036038101906100f09190610702565b61039e565b005b610111600480360381019061010c919061066d565b610516565b60405161011e91906108cc565b60405180910390f35b6000808360405161013891906108b5565b908152602001604051809103902060040160009054906101000a900460ff16610196576040517f08c379a000000000000000000000000000000000000000000000000000000000815260040161018d90610960565b60405180910390fd5b816000846040516101a791906108b5565b90815260200160405180910390206003015414905092915050565b600043905090565b6060806000836040516101dd91906108b5565b908152602001604051809103902060040160009054906101000a900460ff1661023b576040517f08c379a000000000000000000000000000000000000000000000000000000000815260040161023290610960565b60405180910390fd5b60008360405161024b91906108b5565b908152602001604051809103902060000160008460405161026c91906108b5565b908152602001604051809103902060010181805461028990610a85565b80601f01602080910402602001604051908101604052809291908181526020018280546102b590610a85565b80156103025780601f106102d757610100808354040283529160200191610302565b820191906000526020600020905b8154815290600101906020018083116102e557829003601f168201915b5050505050915080805461031590610a85565b80601f016020809104026020016040519081016040528092919081815260200182805461034190610a85565b801561038e5780601f106103635761010080835404028352916020019161038e565b820191906000526020600020905b81548152906001019060200180831161037157829003601f168201915b5050505050905091509150915091565b6000826040516103ae91906108b5565b908152602001604051809103902060040160009054906101000a900460ff161561040d576040517f08c379a000000000000000000000000000000000000000000000000000000000815260040161040490610940565b60405180910390fd5b6040518060a001604052808581526020018481526020018381526020018281526020016001151581525060008360405161044791906108b5565b9081526020016040518091039020600082015181600001908051906020019061047192919061054d565b50602082015181600101908051906020019061048e92919061054d565b5060408201518160020190805190602001906104ab92919061054d565b506060820151816003015560808201518160040160006101000a81548160ff0219169083151502179055509050507f270ff4b111e5baa49283562af127cc5ea74e9d6c9efd5465578bd9223d5843f08260405161050891906108e7565b60405180910390a150505050565b6000808260405161052791906108b5565b908152602001604051809103902060040160009054906101000a900460ff169050919050565b82805461055990610a85565b90600052602060002090601f01602090048101928261057b57600085556105c2565b82601f1061059457805160ff19168380011785556105c2565b828001600101855582156105c2579182015b828111156105c15782518255916020019190600101906105a6565b5b5090506105cf91906105d3565b5090565b5b808211156105ec5760008160009055506001016105d4565b5090565b60006106036105fe846109cc565b61099b565b90508281526020810184848401111561061b57600080fd5b610626848285610a43565b509392505050565b60008135905061063d81610b26565b92915050565b600082601f83011261065457600080fd5b81356106648482602086016105f0565b91505092915050565b60006020828403121561067f57600080fd5b600082013567ffffffffffffffff81111561069957600080fd5b6106a584828501610643565b91505092915050565b600080604083850312156106c157600080fd5b600083013567ffffffffffffffff8111156106db57600080fd5b6106e785828601610643565b92505060206106f88582860161062e565b9150509250929050565b6000806000806080858703121561071857600080fd5b600085013567ffffffffffffffff81111561073257600080fd5b61073e87828801610643565b945050602085013567ffffffffffffffff81111561075b57600080fd5b61076787828801610643565b935050604085013567ffffffffffffffff81111561078457600080fd5b61079087828801610643565b92505060606107a18782880161062e565b91505092959194509250565b6107b681610a23565b82525050565b60006107c7826109fc565b6107d18185610a07565b93506107e1818560208601610a52565b6107ea81610b15565b840191505092915050565b6000610800826109fc565b61080a8185610a18565b935061081a818560208601610a52565b80840191505092915050565b6000610833601383610a07565b91507f5573657220616c726561647920657869737473000000000000000000000000006000830152602082019050919050565b6000610873601383610a07565b91507f5573657220646f6573206e6f74206578697374000000000000000000000000006000830152602082019050919050565b6108af81610a39565b82525050565b60006108c182846107f5565b915081905092915050565b60006020820190506108e160008301846107ad565b92915050565b6000602082019050818103600083015261090181846107bc565b905092915050565b6000604082019050818103600083015261092381856107bc565b9050818103602083015261093781846107bc565b90509392505050565b6000602082019050818103600083015261095981610826565b9050919050565b6000602082019050818103600083015261097981610866565b9050919050565b600060208201905061099560008301846108a6565b92915050565b6000604051905081810181811067ffffffffffffffff821117156109c2576109c1610ae6565b5b8060405250919050565b600067ffffffffffffffff8211156109e7576109e6610ae6565b5b601f19601f8301169050602081019050919050565b600081519050919050565b600082825260208201905092915050565b600081905092915050565b60008115159050919050565b6000819050919050565b6000819050919050565b82818337600083830152505050565b60005b83811015610a70578082015181840152602081019050610a55565b83811115610a7f576000848401525b50505050565b60006002820490506001821680610a9d57607f821691505b60208210811415610ab157610ab0610ab7565b5b50919050565b7f4e487b7100000000000000000000000000000000000000000000000000000000600052602260045260246000fd5b7f4e487b7100000000000000000000000000000000000000000000000000000000600052604160045260246000fd5b6000601f19601f8301169050919050565b610b2f81610a2f565b8114610b3a57600080fd5b5056fea264697066735822122053caf114a41e9e9b12a59ca267824c7221c76d013a95c732841c4a96f43ea3ed64736f6c63430008000033",
  "immutableReferences": {},
  "source": "// SPDX-License-Identifier: MIT\r\npragma solidity ^0.8.0;\r\n\r\ncontract UserRegistry {\r\n    struct User {\r\n        string firstName;\r\n        string surname;\r\n        string email;\r\n        bytes32 passwordHash;\r\n        bool exists;\r\n    }\r\n\r\n    mapping(string => User) private users;\r\n\r\n    event UserRegistered(string email);\r\n    event UserLoggedIn(string email);\r\n\r\n    function registerUser(string memory _firstName, string memory _surname, string memory _email, bytes32 _passwordHash) public {\r\n        require(!users[_email].exists, \"User already exists\");\r\n        \r\n        users[_email] = User({\r\n            firstName: _firstName,\r\n            surname: _surname,\r\n            email: _email,\r\n            passwordHash: _passwordHash,\r\n            exists: true\r\n        });\r\n\r\n        emit UserRegistered(_email);\r\n    }\r\n\r\n    function loginUser(string memory _email, bytes32 _passwordHash) public view returns (bool) {\r\n        require(users[_email].exists, \"User does not exist\");\r\n        return users[_email].passwordHash == _passwordHash;\r\n    }\r\n\r\n    function userExists(string memory _email) public view returns (bool) {\r\n        return users[_email].exists;\r\n    }\r\n\r\n    function getUserInfo(string memory _email) public view returns (string memory, string memory) {\r\n        require(users[_email].exists, \"User does not exist\");\r\n        return (users[_email].firstName, users[_email].surname);\r\n    }\r\n\r\n    // New function to get the current block number\r\n    function getBlockNumber() public view returns (uint) {\r\n        return block.number;\r\n    }\r\n}",
  "sourcePath": "C:\\Xampp\\htdocs\\gov-identity-Dweb\\admin\\blockchain\\contracts\\UserRegistry.sol",
  "compiler": {
    "name": "solc",
    "version": "0.8.0+commit.c7dfd78e.Emscripten.clang"
  },
  "schemaVersion": "3.4.16",
  "updatedAt": "2024-09-28T13:39:33.450Z",
  "devdoc": {
    "kind": "dev",
    "methods": {},
    "version": 1
  },
  "userdoc": {
    "kind": "user",
    "methods": {},
    "version": 1
  }
}