{
  "contractName": "UserRegistry",
  "abi": [
    {
      "anonymous": false,
      "inputs": [
        {
          "indexed": false,
          "internalType": "string",
          "name": "email",
          "type": "string"
        }
      ],
      "name": "UserLoggedIn",
      "type": "event"
    },
    {
      "anonymous": false,
      "inputs": [
        {
          "indexed": false,
          "internalType": "string",
          "name": "email",
          "type": "string"
        }
      ],
      "name": "UserRegistered",
      "type": "event"
    },
    {
      "inputs": [
        {
          "internalType": "string",
          "name": "_firstName",
          "type": "string"
        },
        {
          "internalType": "string",
          "name": "_surname",
          "type": "string"
        },
        {
          "internalType": "string",
          "name": "_email",
          "type": "string"
        },
        {
          "internalType": "bytes32",
          "name": "_passwordHash",
          "type": "bytes32"
        }
      ],
      "name": "registerUser",
      "outputs": [],
      "stateMutability": "nonpayable",
      "type": "function"
    },
    {
      "inputs": [
        {
          "internalType": "string",
          "name": "_email",
          "type": "string"
        },
        {
          "internalType": "bytes32",
          "name": "_passwordHash",
          "type": "bytes32"
        }
      ],
      "name": "loginUser",
      "outputs": [
        {
          "internalType": "bool",
          "name": "",
          "type": "bool"
        }
      ],
      "stateMutability": "view",
      "type": "function"
    },
    {
      "inputs": [
        {
          "internalType": "string",
          "name": "_email",
          "type": "string"
        }
      ],
      "name": "userExists",
      "outputs": [
        {
          "internalType": "bool",
          "name": "",
          "type": "bool"
        }
      ],
      "stateMutability": "view",
      "type": "function"
    },
    {
      "inputs": [
        {
          "internalType": "string",
          "name": "_email",
          "type": "string"
        }
      ],
      "name": "getUserInfo",
      "outputs": [
        {
          "internalType": "string",
          "name": "",
          "type": "string"
        },
        {
          "internalType": "string",
          "name": "",
          "type": "string"
        }
      ],
      "stateMutability": "view",
      "type": "function"
    }
  ],
  "bytecode": "0x608060405234801561001057600080fd5b50610aeb806100206000396000f3fe608060405234801561001057600080fd5b506004361061004c5760003560e01c8063380eeece146100515780637c9b7fdd146100815780637ee9a818146100b2578063fddc968e146100ce575b600080fd5b61006b6004803603810190610066919061065a565b6100fe565b6040516100789190610869565b60405180910390f35b61009b60048036038101906100969190610619565b610199565b6040516100a99291906108a6565b60405180910390f35b6100cc60048036038101906100c791906106ae565b61036d565b005b6100e860048036038101906100e39190610619565b6104c2565b6040516100f59190610869565b60405180910390f35b6000808360405161010f9190610852565b908152602001604051809103902060030160009054906101000a900460ff1661016d576040517f08c379a0000000000000000000000000000000000000000000000000000000008152600401610164906108fd565b60405180910390fd5b8160008460405161017e9190610852565b90815260200160405180910390206002015414905092915050565b6060806000836040516101ac9190610852565b908152602001604051809103902060030160009054906101000a900460ff1661020a576040517f08c379a0000000000000000000000000000000000000000000000000000000008152600401610201906108fd565b60405180910390fd5b60008360405161021a9190610852565b908152602001604051809103902060000160008460405161023b9190610852565b9081526020016040518091039020600101818054610258906109fd565b80601f0160208091040260200160405190810160405280929190818152602001828054610284906109fd565b80156102d15780601f106102a6576101008083540402835291602001916102d1565b820191906000526020600020905b8154815290600101906020018083116102b457829003601f168201915b505050505091508080546102e4906109fd565b80601f0160208091040260200160405190810160405280929190818152602001828054610310906109fd565b801561035d5780601f106103325761010080835404028352916020019161035d565b820191906000526020600020905b81548152906001019060200180831161034057829003601f168201915b5050505050905091509150915091565b60008260405161037d9190610852565b908152602001604051809103902060030160009054906101000a900460ff16156103dc576040517f08c379a00000000000000000000000000000000000000000000000000000000081526004016103d3906108dd565b60405180910390fd5b6040518060800160405280858152602001848152602001828152602001600115158152506000836040516104109190610852565b9081526020016040518091039020600082015181600001908051906020019061043a9291906104f9565b5060208201518160010190805190602001906104579291906104f9565b506040820151816002015560608201518160030160006101000a81548160ff0219169083151502179055509050507f270ff4b111e5baa49283562af127cc5ea74e9d6c9efd5465578bd9223d5843f0826040516104b49190610884565b60405180910390a150505050565b600080826040516104d39190610852565b908152602001604051809103902060030160009054906101000a900460ff169050919050565b828054610505906109fd565b90600052602060002090601f016020900481019282610527576000855561056e565b82601f1061054057805160ff191683800117855561056e565b8280016001018555821561056e579182015b8281111561056d578251825591602001919060010190610552565b5b50905061057b919061057f565b5090565b5b80821115610598576000816000905550600101610580565b5090565b60006105af6105aa8461094e565b61091d565b9050828152602081018484840111156105c757600080fd5b6105d28482856109bb565b509392505050565b6000813590506105e981610a9e565b92915050565b600082601f83011261060057600080fd5b813561061084826020860161059c565b91505092915050565b60006020828403121561062b57600080fd5b600082013567ffffffffffffffff81111561064557600080fd5b610651848285016105ef565b91505092915050565b6000806040838503121561066d57600080fd5b600083013567ffffffffffffffff81111561068757600080fd5b610693858286016105ef565b92505060206106a4858286016105da565b9150509250929050565b600080600080608085870312156106c457600080fd5b600085013567ffffffffffffffff8111156106de57600080fd5b6106ea878288016105ef565b945050602085013567ffffffffffffffff81111561070757600080fd5b610713878288016105ef565b935050604085013567ffffffffffffffff81111561073057600080fd5b61073c878288016105ef565b925050606061074d878288016105da565b91505092959194509250565b610762816109a5565b82525050565b60006107738261097e565b61077d8185610989565b935061078d8185602086016109ca565b61079681610a8d565b840191505092915050565b60006107ac8261097e565b6107b6818561099a565b93506107c68185602086016109ca565b80840191505092915050565b60006107df601383610989565b91507f5573657220616c726561647920657869737473000000000000000000000000006000830152602082019050919050565b600061081f601383610989565b91507f5573657220646f6573206e6f74206578697374000000000000000000000000006000830152602082019050919050565b600061085e82846107a1565b915081905092915050565b600060208201905061087e6000830184610759565b92915050565b6000602082019050818103600083015261089e8184610768565b905092915050565b600060408201905081810360008301526108c08185610768565b905081810360208301526108d48184610768565b90509392505050565b600060208201905081810360008301526108f6816107d2565b9050919050565b6000602082019050818103600083015261091681610812565b9050919050565b6000604051905081810181811067ffffffffffffffff8211171561094457610943610a5e565b5b8060405250919050565b600067ffffffffffffffff82111561096957610968610a5e565b5b601f19601f8301169050602081019050919050565b600081519050919050565b600082825260208201905092915050565b600081905092915050565b60008115159050919050565b6000819050919050565b82818337600083830152505050565b60005b838110156109e85780820151818401526020810190506109cd565b838111156109f7576000848401525b50505050565b60006002820490506001821680610a1557607f821691505b60208210811415610a2957610a28610a2f565b5b50919050565b7f4e487b7100000000000000000000000000000000000000000000000000000000600052602260045260246000fd5b7f4e487b7100000000000000000000000000000000000000000000000000000000600052604160045260246000fd5b6000601f19601f8301169050919050565b610aa7816109b1565b8114610ab257600080fd5b5056fea26469706673582212200e7806d85043f2c8de4045eac205f4592015234e3615c2bb334bc0bc9d78b25c64736f6c63430008000033",
  "immutableReferences": {},
  "source": "// SPDX-License-Identifier: MIT\r\npragma solidity ^0.8.0;\r\n\r\ncontract UserRegistry {\r\n    struct User {\r\n        string firstName;\r\n        string surname;\r\n        bytes32 passwordHash;\r\n        bool exists;\r\n    }\r\n\r\n    mapping(string => User) private users;\r\n\r\n    event UserRegistered(string email);\r\n    event UserLoggedIn(string email);\r\n\r\n    function registerUser(string memory _firstName, string memory _surname, string memory _email, bytes32 _passwordHash) public {\r\n        require(!users[_email].exists, \"User already exists\");\r\n        \r\n        users[_email] = User({\r\n            firstName: _firstName,\r\n            surname: _surname,\r\n            passwordHash: _passwordHash,\r\n            exists: true\r\n        });\r\n\r\n        emit UserRegistered(_email);\r\n    }\r\n\r\n    function loginUser(string memory _email, bytes32 _passwordHash) public view returns (bool) {\r\n        require(users[_email].exists, \"User does not exist\");\r\n        return users[_email].passwordHash == _passwordHash;\r\n    }\r\n\r\n    function userExists(string memory _email) public view returns (bool) {\r\n        return users[_email].exists;\r\n    }\r\n\r\n    function getUserInfo(string memory _email) public view returns (string memory, string memory) {\r\n        require(users[_email].exists, \"User does not exist\");\r\n        return (users[_email].firstName, users[_email].surname);\r\n    }\r\n}",
  "sourcePath": "C:\\Xampp\\htdocs\\gov-identity-Dweb\\admin\\blockchain\\contracts\\UserRegistry.sol",
  "compiler": {
    "name": "solc",
    "version": "0.8.0+commit.c7dfd78e.Emscripten.clang"
  },
  "schemaVersion": "3.4.16",
  "updatedAt": "2024-09-24T12:50:40.845Z",
  "devdoc": {
    "kind": "dev",
    "methods": {},
    "version": 1
  },
  "userdoc": {
    "kind": "user",
    "methods": {},
    "version": 1
  }
}